:020000040800F2
:100000007805002001010008DD180008D113000860
:10001000D91800086D010008291E00080000000022
:10002000000000000000000000000000E1190008CE
:100030007101000800000000B1190008151A00083D
:100040001B0100081B0100081B0100081B01000820
:100050001B0100081B0100081B0100081B01000810
:100060001B0100081B0100081B0100081B01000800
:100070001B0100081B0100081B0100081B010008F0
:100080001B0100081B0100081B0100081B010008E0
:100090001B0100081B0100081B0100081B010008D0
:1000A0001B0100081B0100081B0100081B010008C0
:1000B0001B0100081B0100081B0100081B010008B0
:1000C0001B0100081B0100081B0100081B010008A0
:1000D0001B0100081B0100081B0100081B01000890
:1000E0001B0100081B0100081B010008DFF80CD0F1
:1000F00000F02AF800480047B11E000878050020EB
:100100000648804706480047FEE7FEE7FEE7FEE7B1
:10011000FEE7FEE7FEE7FEE7FEE7FEE7751A0008EA
:10012000ED000008D2B201E000F8012B491EFBD21D
:1001300070470022F6E710B513460A4604461946F2
:10014000FFF7F0FF204610BD064C074D06E0E068C3
:1001500040F0010394E8070098471034AC42F6D30E
:10016000FFF7C8FF7024000890240008FEE7000095
:1001700070470000704700002DE9F04F82B00E6814
:10018000002E00F0F38041F20042C4F20102042389
:1001900040F2004E904208BF03234FF6FF7CC4F2AA
:1001A000010E009300240123C1F2100C4FF0000A4D
:1001B0004FF0000940E0012504F00C030F279F4099
:1001C0002BEA070705FA03F33B4342F826304E6853
:1001D000F203DEF8002054BF22EA080242EA0802D5
:1001E000CEF80020DEF80420B30354BF22EA080250
:1001F00042EA0802CEF80420F302DEF8082054BFD9
:1002000022EA080242EA0802B30240F20C43CEF8A6
:100210000820C4F201031A6854BF22EA080242EA25
:1002200008021A6001230E680AF1010A36FA0AF27E
:1002300004F1040400F09A8003FA0AFB16EA0B08A2
:10024000F1D04A68624511DC122A51D8DFE802F089
:10025000340A424650505050505050505050505018
:1002600050494D00D1F80C9042E000BF4FF6FF75A9
:10027000C1F22105AA420FDC0025C1F21105AA42F4
:100280001AD00025C1F21205AA4215D00025C1F2EC
:100290002105AA4210D02BE00025C1F22205AA4276
:1002A0000AD00025C1F23105AA4205D00025C1F2CD
:1002B0003205AA421CD100BF8A6842B1012A14BF8C
:1002C000C0F814B0C0F810B04FF0080910E04FF0BB
:1002D00004090DE0CA6802F1080909E04FF00009BD
:1002E00006E0CA6802F1040902E0CA6802F10C09DA
:1002F00022460546B8F5807F24BF203A04352E6893
:100300000F279740BE4309FA02F232432A60CA79A6
:10031000D2067FF588AF41F21803C4F202031A68CF
:100320004FEA9A0642F001021A601A6840F600038A
:1003300002F001020192019AAEF57E7252F826B0E7
:10034000C4F2010398420FD040F60043C4F2010307
:1003500098423FF430AF41F20003C4F20103009D24
:10036000984208BF022527E7002525E702B0BDE82F
:10037000F08F000040F27410C2F200000068704775
:1003800040F2080040F27411C2F20000C2F2000113
:1003900000780A68104408607047000080B542F297
:1003A0000000C4F20200016841F010010160032066
:1003B00000F062F8002000F005F800F02BF80020B3
:1003C00080BD0000B0B540F20802C2F2000240F267
:1003D00004011278C2F200014FF47A730968B3FB8A
:1003E000F2F20446B1FBF2F1084600F0E3FA0F2CFA
:1003F0004FF001050CD858B94FF0FF3021460022CC
:10040000002500F029F840F20C00C2F20000046060
:100410002846B0BD82B041F21800C4F20200016863
:10042000022241F001010160016801F00101019126
:100430000199416841F080514160406800F080506E
:10044000009000980420C4F20100016862F31A6170
:10045000016002B07047000070B514460D460646B4
:1004600001F0E4FC2946224601F03AFA0146304602
:1004700001F0E4FC70BD000080B501F0F1FC80BD2E
:100480002DE9F04381B0002800F0898042F2000895
:10049000C4F202080446D8F800000D4600F0070038
:1004A00088420CD2D8F8000020F007002843C8F892
:1004B0000000D8F8000000F00700A8426FD12068C3
:1004C00041F204098107C4F2020917D5410705D595
:1004D000D9F8001041F4E061C9F80010010705D512
:1004E000D9F8001041F46051C9F80010D9F8001093
:1004F000A26821F0F0011143C9F80010C00745D1EE
:10050000D8F8000000F00700A8420CD9D8F8000085
:1005100020F007002843C8F80000D8F8000000F0D9
:100520000700A8423BD12068410707D5D9F8001041
:10053000E26821F4E0611143C9F80010000708D512
:10054000D9F80000216920F4605040EAC100C9F8E0
:10055000000000F079F8D9F8001042F25842C1F3D7
:100560000311C0F60002515C40F2040220FA01F1CE
:1005700040F20C00C2F200000068C2F200021160FA
:10058000FFF720FF002001B0BDE8F083606802287B
:1005900009D0012829D159F8041C890307D4012066
:1005A00001B0BDE8F08359F8041C8901F7D5D9F8EA
:1005B000001021F003010843C9F80000FFF7DAFE3C
:1005C000064641F2883700BFD9F80000616800F0A4
:1005D0000C00B0EB810F93D0FFF7CCFE801BB8422C
:1005E000F2D9032001B0BDE8F08359F8041C890753
:1005F000D5D5DCE740F20400C2F200000068704785
:1006000080B5FFF7F7FF41F20401C4F20201096867
:1006100042F26842C1F30221C0F60002515CC840B8
:1006200080BD000080B5FFF7E5FF41F20401C4F290
:100630000201096842F26842C1F3C221C0F6000219
:10064000515CC84080BD000041F2040CC4F2020CB1
:10065000DCF8003003F00C00082841F20020C0F262
:100660007A0018BF7047C3F383420AA18A5CD9039A
:1006700005D440F60010C0F23D0050437047DCF84E
:10068000001008A3C1F34041595C5043B0FBF1F0A6
:10069000704700BF02030405060708090A0B0C0D8A
:1006A0000E0F1010010200002DE9F04182B0002869
:1006B00000F0C4800446007841F20006C007C4F28E
:1006C000020643D0706800F00C00042817D0706850
:1006D00000F00C00082802D17068C0030FD46568D0
:1006E0002DB1B5F5A02F10D0B5F5803F11D03068F1
:1006F00020F480303060306820F480200CE03068D6
:10070000800323D5606808BB98E0306840F48020FF
:100710003060306840F480303060FFF72BFE002DF1
:10072000054610D03068800310D4FFF723FE401B2D
:100730006428F7D904E100BFFFF71CFE401B6428C2
:100740004FF0030077D830688003F5D42078800715
:1007500018D5706810F00C0F07D0706800F00C000E
:10076000082826D17068C00323D43068800702D5DA
:100770002069012862D13068616920F0F80040EA00
:10078000C1003060207800073DD5A06938B3002053
:10079000C4F242200121C0F88014FFF7EBFD0546AA
:1007A000706A80072DD4FFF7E5FD401B0228F7D9BA
:1007B000C6E02069002840F20000C4F2422000F0A8
:1007C000968001210160FFF7D5FD0546306880075E
:1007D000D1D4FFF7CFFD401B0228F7D9B0E00020AD
:1007E000C4F242200021C0F88014FFF7C3FD054683
:1007F000706A800707D5FFF7BDFD401B0228F7D9B7
:100800009EE001F0D7F8207840071BD4E5698DB150
:10081000706800F00C00082847D1012D0ED07068D8
:10082000216A00F480328A4208D1616A00F47010B3
:10083000884203D1002002B0BDE8F081012002B05F
:10084000BDE8F081F06910F0805808D1F06940F0FF
:100850008050F061F06900F080500190019847F2FB
:100860000007C4F200073868C00510D4386840F4A7
:1008700080703860FFF77EFD054600BF3868C00510
:1008800005D4FFF777FD401B6428F7D958E0E568E9
:100890001DB1052D3CD0012D3ED0306A20F0010065
:1008A0003062306A20F0040039E00027C4F24227A9
:1008B00000203866FFF75EFD022D05460CD100BF13
:1008C0003068800154D5FFF755FD401B02284FF0DA
:1008D0000300F5D9AFE700BF30688001AAD5FFF764
:1008E00049FD401B02284FF00300F5D9A3E7002182
:1008F0000160FFF73FFD0546306880077FF542AF96
:10090000FFF738FD401B02284FF00300F4D992E7AF
:10091000306A40F004003062306A40F0010030621A
:10092000FFF728FD002D054641F2883714D000BF9F
:10093000306A800713D4FFF71DFD401BB842F7D97A
:10094000032002B0BDE8F081FFF714FD401BB84260
:100950004FF003003FF66FAF306A8007F4D4B8F170
:10096000000F7FF453AFF06920F08050F0614DE745
:10097000206AB0F5803F05D17168A26821F400318A
:10098000114371607168626A21F474111043084365
:10099000706001203866FFF7EDFC04463068800186
:1009A0003FF548AFFFF7E6FC001B02284FF00300BD
:1009B000F4D940E780B501F015F880BDB0B590F8E6
:1009C0003C20012A04BF0220B0BD01F108053CCD46
:1009D000D1E900CE23F47C5322F470521A432EF452
:1009E000F0431A432CF4E0431A4324F4C0431A435F
:1009F0002A43C96922F480420368114359640021E3
:100A000080F83C100846B0BD10B590F83C20012A93
:100A10004FF0020231D0012380F83C3080F83D20B5
:100A20000268D2F804E0D2F808C00C682EF0700317
:100A3000234340F2FF74C4F20004A242536005DC79
:100A4000B2F1804F0ED040F2004307E042F600437F
:100A5000C4F201039A4205D040F60003C4F2000339
:100A60009A4204D149682CF0800319439160012116
:100A7000002280F83D1080F83C20104610BD000098
:100A800010B5044641B1082909D0042914BF04F166
:100A9000450004F1430004E004F1420001E004F1E8
:100AA0004400007801281CBF012010BD022041B184
:100AB000082909D0042914BF84F8450084F84300AC
:100AC00004E084F8420001E084F844002068042235
:100AD00001F02AF8206840F2FF72416CC4F2000273
:100AE00041F400419042416405DCB0F1804F0ED0EA
:100AF00040F2004107E042F60041C4F201018842A1
:100B000005D040F60001C4F20001884206D1816898
:100B100001F00701062904BF002010BD016841F063
:100B200001010160002010BDB0B50446006800223C
:100B30000D4600F0F9FF206841F21111026A0A42E5
:100B400008D1026A40F244431A4203D1426C22F4B3
:100B500000424264026A0A4208D1016A40F24442F9
:100B6000114203D1016821F0010101600120082D2B
:100B700009D0042D0BD0002D14BF84F8450084F853
:100B800042000020B0BD84F844000020B0BD84F8CD
:100B900043000020B0BD0000002804BF01207047C2
:100BA00010B5044690F83D0028B9002084F83C00B8
:100BB000204600F01FF8022084F83D002068211D27
:100BC00000F05AFF012084F8460084F83E0084F8C3
:100BD0003F0084F8400084F8410084F8420084F823
:100BE000430084F8440084F8450084F83D00002068
:100BF00010BD000081B0006840F2FF71C4F2000136
:100C0000884214DCB0F1804F2CD040F20041C4F295
:100C10000001884242D141F21C00C4F20200016886
:100C200041F002010160006800F0020025E040F69A
:100C30000001C4F20001884223D042F60041C4F210
:100C4000010188422AD141F21C00C4F2020050F88E
:100C5000041C41F4006140F8041C50F8040C00F43A
:100C600000600AE041F21C00C4F20200016841F099
:100C700001010160006800F001000090009801B0DF
:100C8000704741F21C00C4F20200016841F0040107
:100C90000160006800F004000090009801B0704707
:100CA00010B5044690F83C0001284FF0020008BF40
:100CB00010BD012284F83C2084F83D0020684FF6E6
:100CC000777382689A4382600A683F2A14DD5F2A3C
:100CD00018DD602A28D0B2F5005F2DD0702A40D1EF
:100CE000D1E9012CCB68614600F030FF20688168B3
:100CF00041F07701816034E01F2A0FDC92B1102AA5
:100D000010D02EE0402A23D0502A2AD14B68CA683E
:100D1000194600F0EBFF2068502120E0202A01D086
:100D2000302A1ED111461AE04B68CA68194600F0F5
:100D3000EFFF2068602112E0D1E9012CCB68614609
:100D400000F004FF2068816841F48041816008E080
:100D50004B68CA68194600F0C9FF2068402100F0BE
:100D600001FF012084F83D00002084F83C0010BD04
:100D700070B586B0006840F2FF71C4F2000188428D
:100D80004FF00001CDE90411CDE9021134DCB0F1DE
:100D9000804F6FD040F20041C4F20001884240F021
:100DA000C18041F21800C4F20200016840F600441C
:100DB00041F0040101600168C4F2010401F0040182
:100DC00001910199016802AD41F0080101600068DC
:100DD000022600F0080001900198C0200290A4F5BE
:100DE0008060294603960596FFF7C6F90320CDE9F2
:100DF00002062046059638E040F60001C4F20001E4
:100E0000884275D042F60041C4F20101884240F0A8
:100E1000898041F21800C4F20200016840F60044E3
:100E200041F0080101600168C4F2010401F0080109
:100E300001910199016802AD41F00401016000686F
:100E4000022600F00400019001984FF4C040029087
:100E50002046294603960596FFF78EF94FF47060F9
:100E6000CDE902060596A4F580602946FFF784F9CE
:100E700006B070BD41F21800C4F20200016840F6ED
:100E8000004441F0040101600168C4F2010401F072
:100E9000040101910199016802AD41F0080101606E
:100EA0000068022600F008000190019848F20C004A
:100EB0000290A4F58060294603960596FFF75CF939
:100EC0000820CDE90206204629460596FFF754F989
:100ED0000420C4F2010001684FF6FF42CFF6FF0282
:100EE000114041F0E06141F48071016006B070BDD5
:100EF00041F21800C4F20200016841F008010160EB
:100F0000006802A900F00800019001984FF44070B9
:100F1000029002200390059040F60040C4F20100C8
:100F2000FFF72AF906B070BD10B5044690F83C00F2
:100F3000012804BF022010BD4FEAB200012303289C
:100F400084F83C3014D80FF20602DFE800F0020605
:100F50000A0E206800F00EFE0AE0206800F03AFE5B
:100F600006E0206800F06AFE02E0206800F098FECB
:100F7000002084F83C0010BD002804BF0120704709
:100F800010B5044690F83D0028B9002084F83C00D4
:100F9000204600F01FF8022084F83D002068211D43
:100FA00000F06AFD012084F8460084F83E0084F8D1
:100FB0003F0084F8400084F8410084F8420084F83F
:100FC000430084F8440084F8450084F83D00002084
:100FD00010BD000070470000B0B5044690F83C001A
:100FE000012804BF0220B0BD4FEAB2000D46012126
:100FF000032884F83C1036D8DFE800F0020A1222F9
:101000002068294600F0B6FD206850F8181F0EE051
:101010002068294600F0DEFD206850F8181F16E011
:101020002068294600F00AFE206850F81C1F41F095
:1010300008010160016821F00401016029690FE0E5
:101040002068294600F02CFE206850F81C1F41F44F
:1010500000610160016821F4806101602969090271
:10106000026811430160002084F83C00B0BD00001C
:10107000002804BF0120704710B5044690F83D00D9
:1010800028B9002084F83C00204600F01FF8022018
:1010900084F83D002068211D00F0EEFC012084F85A
:1010A000460084F83E0084F83F0084F8400084F84D
:1010B000410084F8420084F8430084F8440084F836
:1010C000450084F83D00002010BD0000704700007E
:1010D000B0B5044641B1082909D0042914BF04F170
:1010E000410004F13F0004E004F13E0001E004F19E
:1010F0004000007801281CBF0120B0BD022041B192
:10110000082909D0042914BF84F8410084F83F005D
:1011100004E084F83E0001E084F84000206842F6D4
:1011200044450122C4F2010500F0ECFC2068A5F161
:101130004401884203D1296841F40041296040F20A
:10114000FF71C4F20001884205DCB0F1804F0ED07F
:1011500040F2004107E042F60041C4F2010188423A
:1011600005D040F60001C4F20001884206D1816832
:1011700001F00701062904BF0020B0BD016841F05D
:10118000010101600020B0BD70B50446006842F660
:10119000004600220D46C4F2010600F0B3FC2068B0
:1011A000B0420DD1316A41F21112114208D1016AE7
:1011B00040F24442114203D1416C21F400414164A8
:1011C000016A41F21112114208D1016A40F244420F
:1011D000114203D1016821F0010101600120082DB5
:1011E00009D0042D0BD0002D14BF84F8410084F8E1
:1011F0003E00002070BD84F84000002070BD84F8DF
:101200003F00002070BD0000002804BF012070478F
:1012100010B5044690F83D0028B9002084F83C0041
:10122000204600F021F8242084F83D002068C168A1
:1012300021F40051C160204600F07CFD2068016966
:1012400021F490410161416921F02A014161C168A5
:1012500041F40051C16000202021206484F83D1039
:1012600084F83E1010BD000070B586B040F6004412
:10127000C4F20104006804F5305100268842059646
:10128000CDE90366029601D006B070BD41F21800A8
:10129000C4F20200016802AD41F4804101600168BE
:1012A00001F4804101910199016841F00801016058
:1012B0000068294600F00800019001984020029043
:1012C00002200390032005902046FEF755FF802062
:1012D000CDE90206204629460496FEF74DFF04207C
:1012E000C4F20100016841F0E06141F004010160D5
:1012F00006B070BD2DE9F04381B0054690F83E0080
:1013000020280BD10E4600294FF0010059D0174676
:10131000002A56D095F83C00012803D1022001B0E4
:10132000BDE8F083012085F83C004FF00009222041
:101330001C46C5F8409085F83E00C5F83090FFF790
:1013400019F8AF85EF85A9680746B1F5805F07D129
:10135000286900281CBF30464E46B046064601E0CC
:101360004FF0000885F83C900AE000BF286800268E
:1013700040686FF35F2028F8020BE88D0138E8859C
:10138000E88DD0B1284620213A46234600F01AFDC8
:10139000D0B9002EEAD0A868B0F5805F08D008B9AF
:1013A000286928B12868406800F07F0002E000BF8B
:1013B0002868406806F8010BDFE7202085F83E002A
:1013C000002001B0BDE8F083032001B0BDE8F08348
:1013D000FEE7000083B041F21800C4F20200016889
:1013E00041F020010160016801F0200102910299A1
:1013F000016841F004010160016801F004010191FC
:101400000199016841F008010160006800F00800DE
:101410000090009803B0704710B596B040F21000ED
:1014200042F600420021C2F20000C4F2010247234A
:1014300040F2E7344FF0800C1591CDE91311CDE95E
:101440001111CDE90F11CDE90D11CDE90B11CDE948
:101450000911CDE90711CDE90511CDE90311CDE958
:101460000111C0E90023C0E90214C0E90411C0F869
:1014700018C0FFF791FB002818BFFEF77BFE4FF462
:101480008050129040F21000C2F2000012A9FFF743
:1014900007FC002818BFFEF76DFE40F21000C2F2F4
:1014A0000000FFF769FD002818BFFEF763FE40F259
:1014B0001000C2F20000FFF7DBFD002818BFFEF7A6
:1014C00059FE40F210000024C2F2000010A9CDE93C
:1014D0001044FFF799FA002818BFFEF74BFE3020A2
:1014E000099040F2F310CDE90A0440F21000C2F274
:1014F000000009A90022CDE90C44CDE90E44FFF714
:1015000013FD002818BFFEF735FE40F21000C2F2AE
:10151000000009A90422FFF707FD002818BFFEF705
:1015200029FE6020099000200A9040F21000C2F2CB
:10153000000009A90822FFF74FFD002818BFFEF799
:1015400019FE40F21000C2F2000009A90C22FFF7B8
:1015500043FD002818BFFEF70DFE00200590CDE9E1
:101560000300CDE901004FF40051089040F2100053
:101570000691C2F2000001A9FFF720FA002818BF67
:10158000FEF7F8FD40F21000C2F20000FFF7F0FB9A
:1015900016B010BD10B58EB040F258000021C2F256
:1015A00000004FF08042472340F2E7340D91CDE92F
:1015B0000B11CDE90911CDE90711CDE90511CDE9EF
:1015C0000311CDE90111C0E90023C0E90214016152
:1015D0008161FFF7E1FA002818BFFEF7CBFD4FF459
:1015E00080500A9040F25800C2F200000AA9FFF7AA
:1015F00057FB002818BFFEF7BDFD40F25800C2F2AD
:101600000000FFF735FD002818BFFEF7B3FD40F2DC
:1016100058000024C2F2000008A9CDE90844FFF7F1
:10162000F3F9002818BFFEF7A5FD6020CDE90104FD
:1016300040F25800C2F2000001A900220394059470
:10164000FFF7CAFC002818BFFEF794FD40F25800CF
:10165000C2F2000001A90422FFF7BEFC002818BF57
:10166000FEF788FD40F25800C2F2000001A90822EE
:10167000FFF7B2FC002818BFFEF77CFD40F25800CF
:10168000C2F2000001A90C22FFF7A6FC002818BF37
:10169000FEF770FD40F25800C2F20000FFF768FB51
:1016A0000EB010BD10B58EB040F2A00040F2004266
:1016B0000021C2F20000C4F20002472340F2E734E6
:1016C0000D91CDE90B11CDE90911CDE90711CDE956
:1016D0000511CDE90311CDE90111C0E90023C0E9ED
:1016E000021401618161FFF757FA002818BFFEF765
:1016F00041FD4FF480500A9040F2A000C2F2000079
:101700000AA9FFF7CDFA002818BFFEF733FD40F213
:10171000A000C2F20000FFF7ABFC002818BFFEF7E4
:1017200029FD40F2A0000024C2F2000008A9CDE982
:101730000844FFF769F9002818BFFEF71BFD602079
:10174000CDE9010440F2A000C2F2000001A900228C
:1017500003940594FFF740FC002818BFFEF70AFD2C
:1017600040F2A000C2F2000001A90422FFF734FCFD
:10177000002818BFFEF7FEFC40F2A000C2F20000F5
:1017800001A90822FFF728FC002818BFFEF7F2FC89
:1017900040F2A000C2F2000001A90C22FFF71CFCDD
:1017A000002818BFFEF7E6FC40F2A000C2F20000DD
:1017B000FFF7DEFA0EB010BD10B58EB040F2E800B3
:1017C0000021C2F2000040F6000240F2E7340D9121
:1017D000CDE90B11CDE90911CDE90711CDE90511CD
:1017E000CDE90311CDE90111C4F200024723C0E99C
:1017F000021401618021C0E900238161FFF7CCF967
:10180000002818BFFEF7B6FC4FF480500A9040F253
:10181000E800C2F200000AA9FFF742FA002818BF48
:10182000FEF7A8FC40F2E800C2F20000FFF720FC3F
:10183000002818BFFEF79EFC40F2E8000024C2F228
:10184000000008A9CDE90844FFF7DEF8002818BF1A
:10185000FEF790FC6020CDE9010440F2E800C2F2FE
:10186000000001A9082203940594FFF7B5FB0028A6
:1018700018BFFEF77FFC40F2E800C2F2000001A9A9
:101880000C22FFF7A9FB002818BFFEF773FC40F2FB
:10189000E800C2F20000FFF76BFA0EB010BD0000C6
:1018A00080B540F2301043F60001C2F20000C4F2ED
:1018B000010100234FF00C0C4FF4E13280E80E00E0
:1018C000C0E90333C0E905C3C361FFF79DFC0028ED
:1018D00018BFFEF74FFC80BDFEE700007047000018
:1018E00000F0070080F00703042B28BF04234FF00B
:1018F000FF3C03380CFA03F338BF002099438140C2
:101900000CFA00F022EA00000843704710B544F2D8
:101910004022C0F20F02B2FBF0F040F2100CC2F213
:10192000000C013841F25972DCF800304143CDF22D
:10193000B71240F2580EA1FB0214D862C2F2000E98
:10194000DEF80010CCF80C0040F2A00CC862C2F225
:10195000000CDCF80020A40BCEF80C00D062CCF810
:101960000C0054639463D46314644C638C63CC6341
:101970000C641C64DC6310BD44F24022C0F20F0210
:10198000B2FBF0F048F21F5201384143C5F2EB12AE
:10199000A1FB021240F2E801C2F200010B685209F9
:1019A000D862C8605A639A63DA631A6470470000A9
:1019B0007047000081B040F20400C2F200000068ED
:1019C00044F6D351C1F26201A0FB0101480A009024
:1019D00000BF0098411E00280091F9D101B0704766
:1019E00070470000B0B501380024B4EB106F1CBF85
:1019F0000120B0BD4EF21005CEF2000568604FF038
:101A0000FF300F2100F01AFA0720AC602860204652
:101A1000B0BD000080B5FEF7B3FC80BD70B590B0DE
:101A200006AC20462821FEF784FB012006900A9090
:101A30004FF4E01000254FF4803102260F9020462D
:101A40000595CDE90355CDE90155CDE90715CDE95A
:101A50000D61FEF729FE0F20CDE901064FF48060ED
:101A6000CDE9040501A802210395FEF709FD10B098
:101A700070BD00007047000010B540F2FF7E0368A3
:101A8000C4F2000E42F6004C7045C4F2010C05DCB5
:101A9000B0F1804F0AD040F2004203E0604505D02B
:101AA00040F60002C4F20002904203D14A6823F0DB
:101AB00070031343704505DCB0F1804F0AD040F24B
:101AC000004203E0604505D040F60002C4F2000287
:101AD000904203D1CA6823F44073134323F0800279
:101AE0004B69D1F800E08C681A4360450260C4621B
:101AF000C0F828E002D10969CCF830100121416119
:101B000010BD000080B501F01F014FF0010CD0F8AE
:101B100020E00CFA01F32EEA03030362036A02FADF
:101B200001F11943016280BD80B501F01F014FF042
:101B3000040CD0F820E00CFA01F32EEA0303036250
:101B4000036A02FA01F11943016280BDD0F808C0AE
:101B500011432CF47F4C41EA032141EA0C018160DE
:101B600070470000826822F07002114341F00701C3
:101B700081607047B0B5026A42F6004422F001026B
:101B80000262026AD0F804E0D0F818C08B6822F034
:101B90000202C4F20104A04242EA030205D1CB686A
:101BA00022F00C0223F004031A430B68A04207D171
:101BB000D1E905452EF4407E44EA0E0444EA050EC0
:101BC0002CF073052B43C0F804E08361496841633E
:101BD0000262B0BDB0B5026A42F6004422F01002C3
:101BE0000262026AD0F804E0D0F818C08B6822F0D4
:101BF0002002C4F20104A04242EA031207D1CB68DA
:101C00006FF0400522F0C00205EA03131A430B6887
:101C1000A04207D1D1E905452EF4406E4EEA840476
:101C200044EA850E2CF4E64545EA0323C0F804E0B7
:101C30008361496881630262B0BD0000B0B5026A89
:101C400042F6004422F480720262026AD0F804E094
:101C5000D0F81CC08B6822F40072C4F20104A042C8
:101C600042EA032207D1CB6840F2FF451B0222F46F
:101C70004062AB431A430B68A04207D1D1E9054546
:101C80002EF4405E4EEA041444EA051E2CF073055F
:101C90002B43C0F804E0C3614968C1630262B0BD70
:101CA000B0B5026A42F6004522F480520262026A2E
:101CB0004368D0F81CE00C68D1F808C0C4F20105F4
:101CC000A84204D14D6923F4804343EA85132EF4DE
:101CD000E64545EA04254360C56122F4005249689F
:101CE00042EA0C3201640262B0BD0000D0F820C0AC
:101CF000036A23F001030362836923F0F00343EADC
:101D000002122CF00A03194382610162704700003D
:101D1000036A23F0100303628369D0F820C023F420
:101D2000704343EA02322CF0A00343EA01118261BE
:101D30000162704710B504460068D4E902C2236905
:101D4000016921F4405111430161616943EA0C02C8
:101D50001143C26841F20C639A431143C160416967
:101D6000A26921F44071114343F60002C4F201025A
:101D70009042416102D0FEF743FC01E0FEF752FCC5
:101D80006268192148439100B0FBF1F048F21F51FD
:101D9000C5F2EB11A0FB01235A096FF0630302FBAC
:101DA0000300322303EB0010A0FB0101F02303EA40
:101DB0005113206803EB0212C1F3431111448160F7
:101DC00010BD00002DE9F04104460068006808409D
:101DD000884202D10020BDE8F0811D460E469046A3
:101DE0005F1C04E0206800683040B042F2D0002F51
:101DF000F8D02DB1FEF7BEFAA0EB0800A842F1D949
:101E00002068C16821F4D071C160416921F00101ED
:101E10004161202084F83D0084F83E00002084F8D1
:101E20003C000320BDE8F081FEE700004EF60C50B8
:101E3000CEF200000068C0F3022070474EF6145343
:101E400000F00F02CEF2000309011A4400F16043D2
:101E5000B0F1FF3FC8BF03F5644211707047000046
:101E60004EF60C51CEF200010A684FF6FF031A40FD
:101E700060F30A2242F0806040F0FD700860704715
:101E800080B582B040F23010C2F20000006800BF9E
:101E900001688906FCD540F23010C2F2000001A9A9
:101EA00001224FF6FF73FFF725FA019802B080BDBB
:101EB000FEF774FAFFF7B2FDFFF78CFAFFF7ACFA02
:101EC000FFF768FBFFF7EEFBFFF776FCFFF7E8FC98
:101ED0004FF47A703221FFF719FD4FF4FA60642154
:101EE000FFF74AFD40F2000440F2100540F25806A8
:101EF00040F2A00740F2E808C2F20004C2F2000576
:101F0000C2F20006C2F20007C2F20008204600F04A
:101F1000A1FAC0B231383828F8D8DFE810F07F00D5
:101F2000A900D300FD00270151017E01A801D501C0
:101F30007E007E007E007E007E007E007E0002022B
:101F40007E007E007E007E007E007E002B0232023C
:101F50007E007E00650067027E007E007E007E00BF
:101F60006E0287027E007E007E007E007E007E0084
:101F70007E007E007E007E007E007E007E007E0071
:101F80007E007E007E007E0039007E007E005A02C8
:101F900028460C21FFF7F8F830460021FFF7F4F847
:101FA00030460421FFF7F0F830460821FFF7ECF83F
:101FB00030460C21FFF7E8F838460021FFF7E4F837
:101FC00038460421FFF7E0F838460821FFF7DCF82F
:101FD00038460C21FFF7D8F828460821FFF7D4F837
:101FE00028460821FFF774F840460821FFF770F8EB
:101FF00028460021FFF76CF828460021FEF740FD37
:1020000040460C21FFF7C0F828460421FFF7BCF832
:1020100028460421FEF788FD78E777E728460C215B
:10202000FFF7B2F830460021FFF7AEF83046042142
:10203000FFF7AAF830460821FFF7A6F830460C2132
:10204000FFF7A2F838460021FFF79EF83846042132
:10205000FFF79AF838460821FFF796F838460C2122
:10206000FFF792F828460821FFF78EF830467DE109
:1020700028460C21FFF788F830460021FFF784F846
:1020800030460421FFF780F830460821FFF77CF83E
:1020900030460C21FFF778F838460021FFF774F836
:1020A00038460421FFF770F838460821FFF76CF82E
:1020B00038460C21FFF768F828460821FFF764F836
:1020C0003046FDE028460C21FFF75EF8304600213F
:1020D000FFF75AF830460421FFF756F8304608213A
:1020E000FFF752F830460C21FFF74EF83846002132
:1020F000FFF74AF838460421FFF746F8384608212A
:10210000FFF742F838460C21FFF73EF82846082131
:10211000FFF73AF838467CE028460C21FFF734F800
:1021200030460021FFF730F830460421FFF72CF845
:1021300030460821FFF728F830460C21FFF724F835
:1021400038460021FFF720F838460421FFF71CF835
:1021500038460821FFF718F838460C21FFF714F825
:1021600028460821FFF710F83846D6E028460C210B
:10217000FFF70AF830460021FFF706F83046042141
:10218000FFF702F830460821FEF7FEFF30460C212B
:10219000FEF7FAFF38460021FEF7F6FF3846042125
:1021A000FEF7F2FF38460821FEF7EEFF38460C2115
:1021B000FEF7EAFF28460821FEF7E6FF28467FE003
:1021C00028460C21FEF7E0FF30460021FEF7DCFF39
:1021D00030460421FEF7D8FF30460821FEF7D4FF31
:1021E00030460C21FEF7D0FF38460021FEF7CCFF29
:1021F00038460421FEF7C8FF38460821FEF7C4FF21
:1022000038460C21FEF7C0FF28460821FEF7BCFF28
:1022100030460021FEF75CFF78E628460C21FEF7E9
:10222000B3FF30460021FEF7AFFF30460421FEF732
:10223000ABFF30460821FEF7A7FF30460C21FEF722
:10224000A3FF38460021FEF79FFF38460421FEF722
:102250009BFF38460821FEF797FF38460C21FEF712
:1022600093FF28460821FEF78FFF38467EE0284678
:102270000C21FEF789FF30460021FEF785FF30462E
:102280000421FEF781FF30460821FEF77DFF30462E
:102290000C21FEF779FF38460021FEF775FF38461E
:1022A0000421FEF771FF38460821FEF76DFF38461E
:1022B0000C21FEF769FF28460821FEF765FF384626
:1022C0000C21FEF705FF21E628460C21FEF75CFFF6
:1022D00030460021FEF758FF30460421FEF754FF38
:1022E00030460821FEF750FF30460C21FEF74CFF28
:1022F00038460021FEF748FF38460421FEF744FF28
:1023000038460821FEF740FF38460C21FEF73CFF17
:1023100028460821FEF738FF30460421FEF7D8FE94
:10232000F4E528460C21FEF7D3FE30460021FEF7E7
:10233000CFFE30460421FEF7CBFE30460821FEF7E3
:10234000C7FE30460C21FEF7C3FE38460021FEF7DB
:10235000BFFE38460421FEF7BBFE38460821FEF7D3
:10236000B7FE38460C21FEF7B3FE28460821FEF7DB
:10237000AFFECBE54FF47A704FF47A51FFF7C6FA0F
:10238000C4E528460C21FEF7FFFE30460021FEF78B
:10239000FBFE30460421FEF7F7FE30460821FEF72B
:1023A000F3FE30460C21FEF7EFFE38460021FEF723
:1023B000EBFE38460421FEF7E7FE38460821FEF71B
:1023C000E3FE38460C21FEF7DFFE28460821FEF723
:1023D000DBFE40460C21FEF7D7FE28460421FEF71F
:1023E000D3FE28460421FEF79FFB12E04FF47A70DB
:1023F00042F21071FFF78AFA88E540460C21FEF799
:1024000067FE28460421FEF763FE28460421FEF7F6
:1024100037FB40460821FEF7B7FE28460021FEF7AD
:10242000B3FE28460021FEF77FFB6FE5282001213F
:10243000FFF76CFA6AE502E008C8121F08C1002A1B
:10244000FAD170477047002001E001C1121F002A35
:10245000FBD17047FFF714BD000000000000000032
:10246000010203040607080900000000010203043A
:10247000902400080000002010000000362400080E
:10248000A024000810000020680500004624000871
:10249000000000000024F400010000001000000013
:04000005080000ED02
:00000001FF
